:100000000C9462000C948A000C948A000C948A0070
:100010000C948A000C948A000C948A000C948A0038
:100020000C948A000C948A000C948A000C948A0028
:100030000C948A000C948A000C948A000C948A0018
:100040000C94F9040C948A000C948A000C948A0095
:100050000C948A000C948A000C948A000C948A00F8
:100060000C948A000C948A000000000024002700F1
:100070002A0000000000250028002B0000000000DE
:1000800023002600290004040404040404040202DA
:100090000202020203030303030301020408102007
:1000A0004080010204081020010204081020000012
:1000B0000008000201000003040700000000000027
:1000C0000000980611241FBECFEFD8E0DEBFCDBFE1
:1000D00012E0A0E0B1E0E2E3FEE002C005900D9284
:1000E000AA31B107D9F722E0AAE1B2E001C01D921E
:1000F000A13BB207E1F710E0C2E6D0E004C02197CF
:10010000FE010E941107C136D107C9F70E944305BD
:100110000C9417070C94000096E0899FD0011124DD
:10012000A65DBD4F90967C936E935F9791E09196FC
:100130009C939197E0919702F0919802909196028A
:10014000992339F0309751F0811108C0809146020F
:100150000994309719F05C968C91FACF0895CF925C
:10016000DF92EF92FF920F931F9396E0899FF00129
:100170001124E65DFD4F11A2278D30A121303105FC
:1001800051F178F02230310509F451C023303105A6
:1001900009F452C01F910F91FF90EF90DF90CF9024
:1001A00008956623B9F361E070E00E948C002FB7D8
:1001B000F8948091260290912702A0912802B09194
:1001C00029022FBF8093820290938302A09384021E
:1001D000B0938502DFCF9FB7F894C0902602D090ED
:1001E0002702E0902802F09029029FBF009182022E
:1001F000109183022091840230918502C01AD10AA5
:10020000E20AF30A009194021091950230E020E096
:100210000C151D052E053F0550F462E070E01F919E
:100220000F91FF90EF90DF90CF900C948C006111B4
:10023000B1CF63E070E0F3CF70E060E0F0CF8330E7
:1002400081F028F4813099F08230A9F00895873048
:10025000A9F08830C9F08430B1F4809180008F7D9E
:1002600003C0809180008F7780938000089584B5CB
:100270008F7784BD089584B58F7DFBCF8091B000CA
:100280008F778093B00008958091B0008F7DF9CF73
:10029000CF93DF93282F30E0F901E255FF4F84918F
:1002A000F901E656FF4FD491F901EA57FF4FC49187
:1002B000CC23A1F081110E941F01EC2FF0E0EE0F82
:1002C000FF1FE458FF4FA591B491EC91ED2381E01D
:1002D00090E009F480E0DF91CF91089580E090E014
:1002E000FACF862F0C9448011F93CF93DF93282FCA
:1002F00030E0F901E255FF4F8491F901E656FF4FD6
:10030000D491F901EA57FF4FC491CC23A9F0162FDD
:1003100081110E941F01EC2FF0E0EE0FFF1FEE583D
:10032000FF4FA591B4918FB7F894EC91111108C0CB
:10033000D095DE23DC938FBFDF91CF911F9108957D
:10034000DE2BF8CF862F642F0C947401CF93DF93AC
:1003500090E0FC01E656FF4F24918A579F4FFC0125
:1003600084918823C9F090E0880F991FFC01E85917
:10037000FF4FA591B491FC01EE58FF4FC591D49168
:1003800061110DC09FB7F8948C91209582238C93B6
:100390008881282328839FBFDF91CF910895623001
:1003A00051F49FB7F8943C91822F809583238C93CE
:1003B000E8812E2BEFCF8FB7F894EC912E2B2C9356
:1003C0008FBFEACF862F642F0C94A6016F927F9285
:1003D0008F929F92AF92BF92CF92DF92EF92FF9255
:1003E0000F931F93CF93DF9381E0809396028FB793
:1003F000F894409126025091270260912802709152
:1004000029028FBF8091860290918702A091880275
:10041000B0918902481B590B6A0B7B0B80919202A9
:1004200090919302B0E0A0E084179507A607B70764
:1004300008F01DC1C0E080919002C81760F4E091FF
:100440008C02F0918D02EC0FF11D62E080810E9420
:10045000A601CF5FF0CF712C812C912C5401839495
:1004600080919102781608F05FC0072D10E0E091AE
:100470008E02F0918F02E00FF11F61E080810E94F7
:10048000A601E0918E02F0918F02E00FF11F60E073
:1004900080810E947401D501C401072C04C0880F1B
:1004A000991FAA1FBB1F0A94D2F76C017C01E0942C
:1004B000F094612C809190026816F8F4C62DD0E07B
:1004C000E0918C02F0918D02EC0FFD1F80810E9463
:1004D00048012496CC0FDD1FC65DDD4F892B41F40A
:1004E000888199818C299D29998388836394E2CF9F
:1004F000888199818E219F21F7CFE0918E02F09122
:100500008F02E00FF11F61E080810E9474018091F1
:100510008E0290918F02080F191F60E0F801808110
:100520000E94A60173949CCFCAE2D2E0FE018FEF35
:100530009FEF278D30A1232B21F4148E968F858F6A
:1005400011A2369622E0E636F20799F7F12C96E0F2
:10055000D92E80919002F81608F050C0E12C0F2D92
:1005600010E0000F111F0E5C1D4F20919102E2164A
:1005700008F042C0F801608171810E2C02C07695AE
:1005800067950A94E2F7F29E900111242E0D311D19
:10059000EAE2F2E080E0458D568D2417350709F434
:1005A0006AC08F5F36968A30B1F760FF23C0EAE2F7
:1005B000F2E090E080E0448D411117C0E0918A02A2
:1005C000F0918B02E20FF31F4081D89EF001D99E7B
:1005D000F00D1124E65DFD4F448F368F258F10A25C
:1005E000178E61E00E94AF0005C0019636968A30F2
:1005F000910509F7E394B9CFF394ABCF80E099A1CB
:100600009111892F2696F2E0C636DF07C1F79FB712
:10061000F89440912602509127026091280270912F
:1006200029029FBF409386025093870260938802FD
:10063000709389028823D9F080914B028823B9F006
:100640008091490290914A02019789F48091460273
:10065000DF91CF911F910F91FF90EF90DF90CF909E
:10066000BF90AF909F908F907F906F900895109261
:10067000960280E0EDCF6170B5CF3FB7F8948091DE
:10068000220290912302A0912402B091250226B566
:10069000A89B05C02F3F19F00196A11DB11D3FBFBA
:1006A000BA2FA92F982F8827BC01CD01620F711D89
:1006B000811D911D42E0660F771F881F991F4A9583
:1006C000D1F70895AF92BF92CF92DF92EF92FF924F
:1006D0000F931F93CF93DF936C017B018B01040F6A
:1006E000151FEB015E01AE18BF08C017D10759F006
:1006F0006991D601ED91FC910190F081E02DC60148
:100700000995892B79F7C501DF91CF911F910F9141
:10071000FF90EF90DF90CF90BF90AF900895089535
:1007200090E080E00895FC0101900020E9F7319706
:10073000AF01481B590BBC0189E992E00C9462039C
:10074000CF93DF93EC0160E08E810E94740161E041
:100750008E810E94740160E08E810E9474018BE89A
:1007600091E00197F1F7DF91CF910895CF92DF9259
:10077000EF92FF920F931F93CF93DF936C017C0155
:1007800087E0E80EF11CD0E0C0E0062F10E0B801D1
:100790000C2E02C0759567950A94E2F76170F70117
:1007A00081917F010E9474012196C430D10579F7AF
:1007B000C601DF91CF911F910F91FF90EF90DF90D5
:1007C000CF900C94A003CF92DF92EF92FF920F9301
:1007D0001F93CF93DF93EC01F62E642F8C810E9440
:1007E00074018D818F3F19F060E00E9474010F2D1C
:1007F00010E08F8584FF25C06E0187E0C80ED11CF4
:10080000F12CE12CB8010E2C02C0759567950A9465
:10081000E2F76170F60181916F010E947401FFEFB0
:10082000EF1AFF0A88E0E816F10461F7CE01DF91C4
:10083000CF911F910F91FF90EF90DF90CF900C948C
:10084000A003B80184E0759567958A95E1F7CE011C
:100850000E94B6036F2DCE01DF91CF911F910F91B2
:10086000FF90EF90DF90CF900C94B60340E0682F9C
:1008700089E992E00C94E30381E00E9436048BE363
:100880009FE10197F1F70895CF93DF93613029F04D
:100890009091A80298609093A8026093AC02109285
:1008A000AD0290E49093AE028093AF02805C80939F
:1008B000B00261E080919D020E94A60180919E029B
:1008C0008F3F19F061E00E94A60161E080919F02D4
:1008D0000E94A601C9E9D2E09E01295932408091C7
:1008E000A80284FD0BC084E090E021962817390708
:1008F00044F461E08E810E94A601EECF88E090E092
:10090000F4CF8BE39DE00197F1F760E080919D02C9
:100910000E94740160E080919F020E9474018091A6
:100920009E028F3F19F060E00E9474018091A8023E
:1009300084FD34C063E089E992E00E94B603CBE411
:10094000D6E4CE010197F1F763E089E992E00E94D5
:10095000B6032197F1F763E089E992E00E94B603BC
:1009600083E592E00197F1F762E089E992E00E9465
:10097000B6038091A80280620E94360484E08093CE
:10098000A9028CE00E9436040E943C0482E080931D
:10099000AA0286E0DF91CF910C94360480620E9417
:1009A00036048BE496E40197F1F78091A802806207
:1009B0000E94360483E592E00197F1F78091A80246
:1009C00080620E943604D5CF9091AC02691710F076
:1009D0006FEF690FE62FF0E0E756FD4F9489890F1E
:1009E00080680C94360441E00E94E30381E090E0CB
:1009F00008951F920F920FB60F9211242F933F93D9
:100A00008F939F93AF93BF9380912602909127027B
:100A1000A0912802B09129023091210223E0230FF6
:100A20002D3758F50196A11DB11D20932102809309
:100A3000260290932702A0932802B0932902809166
:100A4000220290912302A0912402B09125020196E6
:100A5000A11DB11D8093220290932302A093240232
:100A6000B0932502BF91AF919F918F913F912F91AC
:100A70000F900FBE0F901F90189526E8230F029637
:100A8000A11DB11DD2CF789484B5826084BD84B598
:100A9000816084BD85B5826085BD85B5816085BD79
:100AA00080916E00816080936E0010928100809131
:100AB00081008260809381008091810081608093B9
:100AC0008100809180008160809380008091B100DE
:100AD00084608093B1008091B00081608093B00009
:100AE00080917A00846080937A0080917A0082609D
:100AF00080937A0080917A00816080937A0080915F
:100B00007A00806880937A001092C10064E084E1EA
:100B10000E94440460E080E00E94E4048DE291E0E1
:100B20000E94930361E080E00E94E40480E491E08D
:100B30000E94930362E080E00E94E4048BE491E071
:100B40000E94930363E080E00E94E40483E591E067
:100B50000E94930361E08EE00E94A601C0E0D0E015
:100B60000E94E601809320028A3209F0B0C00E9400
:100B70003C0460E080E00E94E40486E691E00E948C
:100B8000930362E080E00E94E40481E791E00E9428
:100B9000930310921D0210921C0210921F021092D9
:100BA0001E0210921B0210921A02809120028332C0
:100BB00009F43FC00E94E601809320028823A9F334
:100BC000833299F361E080911A020E94E40489EE75
:100BD00091E00E94930380911A0290911B0201966A
:100BE00090931B0280931A0220911C0230911D02E7
:100BF000F901E75DFE4F50814091200280911E0275
:100C000090911F0254130FC02430310560F40196F7
:100C100090931F0280931E022F5F3F4F30931D025F
:100C200020931C02C2CF019790931F0280931E0253
:100C3000BCCF1092200280911E0290911F02049757
:100C400009F061C00E943C048FE791E00E94930389
:100C500061E08EE00E9474010E943D034B015C0143
:100C600080EDC82E87E0D82EE12CF12C0E943D03A8
:100C7000681979098A099B09683E734081059105C5
:100C8000A8F321E0C21AD108E108F10888EE880E25
:100C900083E0981EA11CB11CC114D104E104F1042D
:100CA00029F70E943C0480E991E00E94930362E0EE
:100CB00080E00E94E40488EA91E00E94930363E0EC
:100CC00080E00E94E4048EEB91E00E949303809107
:100CD0002002833291F40E943C0460E08EE00E9486
:100CE00074018BEE91E00E94930361E080E00E942A
:100CF000E40484E092E00E949303209709F430CF4B
:100D00000E9400002DCF0E943C048AEC91E00E94DA
:100D1000930361E080E00E94E40489ED91E00E9489
:100D2000930362E080E00E94E40483EE91E0CDCF83
:100D300010929C0210929B0281E291E090939A02A1
:100D4000809399028DE080939D028FEF80939E02A5
:100D50008CE080939F028BE08093A0028AE08093D6
:100D6000A10289E08093A20288E08093A3021092FE
:100D7000A4021092A5021092A6021092A70210924D
:100D8000A80261E080E10E94440410922C021092BB
:100D9000300210922F021092310287E191E090937D
:100DA0002B0280932A02E6E4F2E01082148213827E
:100DB0001582369682E0E238F807B9F783E091E0D1
:100DC00090938D0280938C0280E091E090938F024B
:100DD00080938E0284E08093900283E0809391025E
:100DE00087E091E090938B0280938A028AE090E002
:100DF000909393028093920284EF91E090939502F6
:100E00008093940210929802109297021092860298
:100E10001092870210928802109289021092960214
:100E20000895EE0FFF1F0590F491E02D0994F894BA
:020E3000FFCFF2
:100E320004050600010203313233343536373839BE
:100E42002A302300000000E201A20171010000002B
:100E520000F304620390038F0332363038202050AF
:100E6200617373776F726420427265616B657200A1
:100E720041737369676E6D656E740050726573734A
:100E82003A20002A20546F204F4E2026202320543F
:100E92006F204F464600456E74657220436F64654D
:100EA20000616E64205072657373202723270050FF
:100EB200617373776F726420636F7272656374001B
:100EC2004369726375697420697320737769746307
:100ED200686564206F6E6E00507265737320232004
:100EE200546F20537769746368206F666600546894
:100EF2006520427265616B65720057726F6E672082
:100F020050617373776F7264005472792061676104
:100F1200696E005072657373202A00427265616BBC
:100F22006572206973207377697463686564204F02
:100F320046463A005072657373202A20546F20533C
:0A0F42007769746368204F4E4E007B
:00000001FF
